{
  "_format": "hh-sol-artifact-1",
  "contractName": "pidoxyDoxy",
  "sourceName": "contracts/pidoxyDoky.sol",
  "abi": [
    {
      "inputs": [],
      "stateMutability": "nonpayable",
      "type": "constructor"
    },
    {
      "anonymous": false,
      "inputs": [
        {
          "indexed": true,
          "internalType": "address",
          "name": "owner",
          "type": "address"
        },
        {
          "indexed": true,
          "internalType": "address",
          "name": "spender",
          "type": "address"
        },
        {
          "indexed": false,
          "internalType": "uint256",
          "name": "value",
          "type": "uint256"
        }
      ],
      "name": "Approval",
      "type": "event"
    },
    {
      "anonymous": false,
      "inputs": [
        {
          "indexed": true,
          "internalType": "address",
          "name": "from",
          "type": "address"
        },
        {
          "indexed": true,
          "internalType": "address",
          "name": "to",
          "type": "address"
        },
        {
          "indexed": false,
          "internalType": "uint256",
          "name": "value",
          "type": "uint256"
        }
      ],
      "name": "Transfer",
      "type": "event"
    },
    {
      "inputs": [
        {
          "internalType": "address",
          "name": "owner",
          "type": "address"
        },
        {
          "internalType": "address",
          "name": "spender",
          "type": "address"
        }
      ],
      "name": "allowance",
      "outputs": [
        {
          "internalType": "uint256",
          "name": "",
          "type": "uint256"
        }
      ],
      "stateMutability": "view",
      "type": "function"
    },
    {
      "inputs": [
        {
          "internalType": "address",
          "name": "spender",
          "type": "address"
        },
        {
          "internalType": "uint256",
          "name": "amount",
          "type": "uint256"
        }
      ],
      "name": "approve",
      "outputs": [
        {
          "internalType": "bool",
          "name": "",
          "type": "bool"
        }
      ],
      "stateMutability": "nonpayable",
      "type": "function"
    },
    {
      "inputs": [
        {
          "internalType": "address",
          "name": "account",
          "type": "address"
        }
      ],
      "name": "balanceOf",
      "outputs": [
        {
          "internalType": "uint256",
          "name": "",
          "type": "uint256"
        }
      ],
      "stateMutability": "view",
      "type": "function"
    },
    {
      "inputs": [
        {
          "internalType": "address",
          "name": "receiver",
          "type": "address"
        }
      ],
      "name": "buyToken",
      "outputs": [
        {
          "internalType": "bool",
          "name": "",
          "type": "bool"
        }
      ],
      "stateMutability": "payable",
      "type": "function"
    },
    {
      "inputs": [],
      "name": "decimals",
      "outputs": [
        {
          "internalType": "uint8",
          "name": "",
          "type": "uint8"
        }
      ],
      "stateMutability": "view",
      "type": "function"
    },
    {
      "inputs": [
        {
          "internalType": "address",
          "name": "spender",
          "type": "address"
        },
        {
          "internalType": "uint256",
          "name": "subtractedValue",
          "type": "uint256"
        }
      ],
      "name": "decreaseAllowance",
      "outputs": [
        {
          "internalType": "bool",
          "name": "",
          "type": "bool"
        }
      ],
      "stateMutability": "nonpayable",
      "type": "function"
    },
    {
      "inputs": [
        {
          "internalType": "address",
          "name": "spender",
          "type": "address"
        },
        {
          "internalType": "uint256",
          "name": "addedValue",
          "type": "uint256"
        }
      ],
      "name": "increaseAllowance",
      "outputs": [
        {
          "internalType": "bool",
          "name": "",
          "type": "bool"
        }
      ],
      "stateMutability": "nonpayable",
      "type": "function"
    },
    {
      "inputs": [],
      "name": "name",
      "outputs": [
        {
          "internalType": "string",
          "name": "",
          "type": "string"
        }
      ],
      "stateMutability": "view",
      "type": "function"
    },
    {
      "inputs": [],
      "name": "symbol",
      "outputs": [
        {
          "internalType": "string",
          "name": "",
          "type": "string"
        }
      ],
      "stateMutability": "view",
      "type": "function"
    },
    {
      "inputs": [],
      "name": "totalSupply",
      "outputs": [
        {
          "internalType": "uint256",
          "name": "",
          "type": "uint256"
        }
      ],
      "stateMutability": "view",
      "type": "function"
    },
    {
      "inputs": [
        {
          "internalType": "address",
          "name": "to",
          "type": "address"
        },
        {
          "internalType": "uint256",
          "name": "amount",
          "type": "uint256"
        }
      ],
      "name": "transfer",
      "outputs": [
        {
          "internalType": "bool",
          "name": "",
          "type": "bool"
        }
      ],
      "stateMutability": "nonpayable",
      "type": "function"
    },
    {
      "inputs": [
        {
          "internalType": "address",
          "name": "from",
          "type": "address"
        },
        {
          "internalType": "address",
          "name": "to",
          "type": "address"
        },
        {
          "internalType": "uint256",
          "name": "amount",
          "type": "uint256"
        }
      ],
      "name": "transferFrom",
      "outputs": [
        {
          "internalType": "bool",
          "name": "",
          "type": "bool"
        }
      ],
      "stateMutability": "nonpayable",
      "type": "function"
    }
  ],
  "bytecode": "0x60806040523480156200001157600080fd5b506040518060400160405280600a81526020017f7069646f7879446f7879000000000000000000000000000000000000000000008152506040518060400160405280600281526020017f706400000000000000000000000000000000000000000000000000000000000081525081600390805190602001906200009692919062000257565b508060049080519060200190620000af92919062000257565b505050620000ce3369d3c21bcecceda1000000620000d460201b60201c565b620004a5565b600073ffffffffffffffffffffffffffffffffffffffff168273ffffffffffffffffffffffffffffffffffffffff16141562000147576040517f08c379a00000000000000000000000000000000000000000000000000000000081526004016200013e906200035a565b60405180910390fd5b6200015b600083836200024d60201b60201c565b80600260008282546200016f9190620003aa565b92505081905550806000808473ffffffffffffffffffffffffffffffffffffffff1673ffffffffffffffffffffffffffffffffffffffff1681526020019081526020016000206000828254620001c69190620003aa565b925050819055508173ffffffffffffffffffffffffffffffffffffffff16600073ffffffffffffffffffffffffffffffffffffffff167fddf252ad1be2c89b69c2b068fc378daa952ba7f163c4a11628f55a4df523b3ef836040516200022d91906200037c565b60405180910390a362000249600083836200025260201b60201c565b5050565b505050565b505050565b828054620002659062000411565b90600052602060002090601f016020900481019282620002895760008555620002d5565b82601f10620002a457805160ff1916838001178555620002d5565b82800160010185558215620002d5579182015b82811115620002d4578251825591602001919060010190620002b7565b5b509050620002e49190620002e8565b5090565b5b8082111562000303576000816000905550600101620002e9565b5090565b600062000316601f8362000399565b91507f45524332303a206d696e7420746f20746865207a65726f2061646472657373006000830152602082019050919050565b620003548162000407565b82525050565b60006020820190508181036000830152620003758162000307565b9050919050565b600060208201905062000393600083018462000349565b92915050565b600082825260208201905092915050565b6000620003b78262000407565b9150620003c48362000407565b9250827fffffffffffffffffffffffffffffffffffffffffffffffffffffffffffffffff03821115620003fc57620003fb62000447565b5b828201905092915050565b6000819050919050565b600060028204905060018216806200042a57607f821691505b6020821081141562000441576200044062000476565b5b50919050565b7f4e487b7100000000000000000000000000000000000000000000000000000000600052601160045260246000fd5b7f4e487b7100000000000000000000000000000000000000000000000000000000600052602260045260246000fd5b6116fa80620004b56000396000f3fe6080604052600436106100a75760003560e01c806370a082311161006457806370a08231146101e45780637e72fb521461022157806395d89b4114610251578063a457c2d71461027c578063a9059cbb146102b9578063dd62ed3e146102f6576100a7565b806306fdde03146100ac578063095ea7b3146100d757806318160ddd1461011457806323b872dd1461013f578063313ce5671461017c57806339509351146101a7575b600080fd5b3480156100b857600080fd5b506100c1610333565b6040516100ce91906112c9565b60405180910390f35b3480156100e357600080fd5b506100fe60048036038101906100f99190610ee8565b6103c5565b60405161010b91906112ae565b60405180910390f35b34801561012057600080fd5b506101296103e8565b604051610136919061140b565b60405180910390f35b34801561014b57600080fd5b5061016660048036038101906101619190610e99565b6103f2565b60405161017391906112ae565b60405180910390f35b34801561018857600080fd5b50610191610421565b60405161019e9190611426565b60405180910390f35b3480156101b357600080fd5b506101ce60048036038101906101c99190610ee8565b61042a565b6040516101db91906112ae565b60405180910390f35b3480156101f057600080fd5b5061020b60048036038101906102069190610e34565b6104d4565b604051610218919061140b565b60405180910390f35b61023b60048036038101906102369190610e34565b61051c565b60405161024891906112ae565b60405180910390f35b34801561025d57600080fd5b5061026661059a565b60405161027391906112c9565b60405180910390f35b34801561028857600080fd5b506102a3600480360381019061029e9190610ee8565b61062c565b6040516102b091906112ae565b60405180910390f35b3480156102c557600080fd5b506102e060048036038101906102db9190610ee8565b610716565b6040516102ed91906112ae565b60405180910390f35b34801561030257600080fd5b5061031d60048036038101906103189190610e5d565b610739565b60405161032a919061140b565b60405180910390f35b606060038054610342906115c6565b80601f016020809104026020016040519081016040528092919081815260200182805461036e906115c6565b80156103bb5780601f10610390576101008083540402835291602001916103bb565b820191906000526020600020905b81548152906001019060200180831161039e57829003601f168201915b5050505050905090565b6000806103d06107c0565b90506103dd8185856107c8565b600191505092915050565b6000600254905090565b6000806103fd6107c0565b905061040a858285610993565b610415858585610a1f565b60019150509392505050565b60006012905090565b6000806104356107c0565b90506104c9818585600160008673ffffffffffffffffffffffffffffffffffffffff1673ffffffffffffffffffffffffffffffffffffffff16815260200190815260200160002060008973ffffffffffffffffffffffffffffffffffffffff1673ffffffffffffffffffffffffffffffffffffffff168152602001908152602001600020546104c4919061145d565b6107c8565b600191505092915050565b60008060008373ffffffffffffffffffffffffffffffffffffffff1673ffffffffffffffffffffffffffffffffffffffff168152602001908152602001600020549050919050565b600080341015610561576040517f08c379a0000000000000000000000000000000000000000000000000000000008152600401610558906113eb565b60405180910390fd5b60006103e8670de0b6b3a76400003461057a91906114b3565b61058491906114e4565b90506105908382610ca0565b6001915050919050565b6060600480546105a9906115c6565b80601f01602080910402602001604051908101604052809291908181526020018280546105d5906115c6565b80156106225780601f106105f757610100808354040283529160200191610622565b820191906000526020600020905b81548152906001019060200180831161060557829003601f168201915b5050505050905090565b6000806106376107c0565b90506000600160008373ffffffffffffffffffffffffffffffffffffffff1673ffffffffffffffffffffffffffffffffffffffff16815260200190815260200160002060008673ffffffffffffffffffffffffffffffffffffffff1673ffffffffffffffffffffffffffffffffffffffff168152602001908152602001600020549050838110156106fd576040517f08c379a00000000000000000000000000000000000000000000000000000000081526004016106f4906113ab565b60405180910390fd5b61070a82868684036107c8565b60019250505092915050565b6000806107216107c0565b905061072e818585610a1f565b600191505092915050565b6000600160008473ffffffffffffffffffffffffffffffffffffffff1673ffffffffffffffffffffffffffffffffffffffff16815260200190815260200160002060008373ffffffffffffffffffffffffffffffffffffffff1673ffffffffffffffffffffffffffffffffffffffff16815260200190815260200160002054905092915050565b600033905090565b600073ffffffffffffffffffffffffffffffffffffffff168373ffffffffffffffffffffffffffffffffffffffff161415610838576040517f08c379a000000000000000000000000000000000000000000000000000000000815260040161082f9061138b565b60405180910390fd5b600073ffffffffffffffffffffffffffffffffffffffff168273ffffffffffffffffffffffffffffffffffffffff1614156108a8576040517f08c379a000000000000000000000000000000000000000000000000000000000815260040161089f9061130b565b60405180910390fd5b80600160008573ffffffffffffffffffffffffffffffffffffffff1673ffffffffffffffffffffffffffffffffffffffff16815260200190815260200160002060008473ffffffffffffffffffffffffffffffffffffffff1673ffffffffffffffffffffffffffffffffffffffff168152602001908152602001600020819055508173ffffffffffffffffffffffffffffffffffffffff168373ffffffffffffffffffffffffffffffffffffffff167f8c5be1e5ebec7d5bd14f71427d1e84f3dd0314c0f7b2291e5b200ac8c7c3b92583604051610986919061140b565b60405180910390a3505050565b600061099f8484610739565b90507fffffffffffffffffffffffffffffffffffffffffffffffffffffffffffffffff8114610a195781811015610a0b576040517f08c379a0000000000000000000000000000000000000000000000000000000008152600401610a029061132b565b60405180910390fd5b610a1884848484036107c8565b5b50505050565b600073ffffffffffffffffffffffffffffffffffffffff168373ffffffffffffffffffffffffffffffffffffffff161415610a8f576040517f08c379a0000000000000000000000000000000000000000000000000000000008152600401610a869061136b565b60405180910390fd5b600073ffffffffffffffffffffffffffffffffffffffff168273ffffffffffffffffffffffffffffffffffffffff161415610aff576040517f08c379a0000000000000000000000000000000000000000000000000000000008152600401610af6906112eb565b60405180910390fd5b610b0a838383610e00565b60008060008573ffffffffffffffffffffffffffffffffffffffff1673ffffffffffffffffffffffffffffffffffffffff16815260200190815260200160002054905081811015610b90576040517f08c379a0000000000000000000000000000000000000000000000000000000008152600401610b879061134b565b60405180910390fd5b8181036000808673ffffffffffffffffffffffffffffffffffffffff1673ffffffffffffffffffffffffffffffffffffffff16815260200190815260200160002081905550816000808573ffffffffffffffffffffffffffffffffffffffff1673ffffffffffffffffffffffffffffffffffffffff1681526020019081526020016000206000828254610c23919061145d565b925050819055508273ffffffffffffffffffffffffffffffffffffffff168473ffffffffffffffffffffffffffffffffffffffff167fddf252ad1be2c89b69c2b068fc378daa952ba7f163c4a11628f55a4df523b3ef84604051610c87919061140b565b60405180910390a3610c9a848484610e05565b50505050565b600073ffffffffffffffffffffffffffffffffffffffff168273ffffffffffffffffffffffffffffffffffffffff161415610d10576040517f08c379a0000000000000000000000000000000000000000000000000000000008152600401610d07906113cb565b60405180910390fd5b610d1c60008383610e00565b8060026000828254610d2e919061145d565b92505081905550806000808473ffffffffffffffffffffffffffffffffffffffff1673ffffffffffffffffffffffffffffffffffffffff1681526020019081526020016000206000828254610d83919061145d565b925050819055508173ffffffffffffffffffffffffffffffffffffffff16600073ffffffffffffffffffffffffffffffffffffffff167fddf252ad1be2c89b69c2b068fc378daa952ba7f163c4a11628f55a4df523b3ef83604051610de8919061140b565b60405180910390a3610dfc60008383610e05565b5050565b505050565b505050565b600081359050610e1981611696565b92915050565b600081359050610e2e816116ad565b92915050565b600060208284031215610e4657600080fd5b6000610e5484828501610e0a565b91505092915050565b60008060408385031215610e7057600080fd5b6000610e7e85828601610e0a565b9250506020610e8f85828601610e0a565b9150509250929050565b600080600060608486031215610eae57600080fd5b6000610ebc86828701610e0a565b9350506020610ecd86828701610e0a565b9250506040610ede86828701610e1f565b9150509250925092565b60008060408385031215610efb57600080fd5b6000610f0985828601610e0a565b9250506020610f1a85828601610e1f565b9150509250929050565b610f2d81611550565b82525050565b6000610f3e82611441565b610f48818561144c565b9350610f58818560208601611593565b610f6181611685565b840191505092915050565b6000610f7960238361144c565b91507f45524332303a207472616e7366657220746f20746865207a65726f206164647260008301527f65737300000000000000000000000000000000000000000000000000000000006020830152604082019050919050565b6000610fdf60228361144c565b91507f45524332303a20617070726f766520746f20746865207a65726f20616464726560008301527f73730000000000000000000000000000000000000000000000000000000000006020830152604082019050919050565b6000611045601d8361144c565b91507f45524332303a20696e73756666696369656e7420616c6c6f77616e63650000006000830152602082019050919050565b600061108560268361144c565b91507f45524332303a207472616e7366657220616d6f756e742065786365656473206260008301527f616c616e636500000000000000000000000000000000000000000000000000006020830152604082019050919050565b60006110eb60258361144c565b91507f45524332303a207472616e736665722066726f6d20746865207a65726f20616460008301527f64726573730000000000000000000000000000000000000000000000000000006020830152604082019050919050565b600061115160248361144c565b91507f45524332303a20617070726f76652066726f6d20746865207a65726f2061646460008301527f72657373000000000000000000000000000000000000000000000000000000006020830152604082019050919050565b60006111b760258361144c565b91507f45524332303a2064656372656173656420616c6c6f77616e63652062656c6f7760008301527f207a65726f0000000000000000000000000000000000000000000000000000006020830152604082019050919050565b600061121d601f8361144c565b91507f45524332303a206d696e7420746f20746865207a65726f2061646472657373006000830152602082019050919050565b600061125d60208361144c565b91507f596f752063616e6e6f74206d696e742070642077697468207a65726f204554486000830152602082019050919050565b6112998161157c565b82525050565b6112a881611586565b82525050565b60006020820190506112c36000830184610f24565b92915050565b600060208201905081810360008301526112e38184610f33565b905092915050565b6000602082019050818103600083015261130481610f6c565b9050919050565b6000602082019050818103600083015261132481610fd2565b9050919050565b6000602082019050818103600083015261134481611038565b9050919050565b6000602082019050818103600083015261136481611078565b9050919050565b60006020820190508181036000830152611384816110de565b9050919050565b600060208201905081810360008301526113a481611144565b9050919050565b600060208201905081810360008301526113c4816111aa565b9050919050565b600060208201905081810360008301526113e481611210565b9050919050565b6000602082019050818103600083015261140481611250565b9050919050565b60006020820190506114206000830184611290565b92915050565b600060208201905061143b600083018461129f565b92915050565b600081519050919050565b600082825260208201905092915050565b60006114688261157c565b91506114738361157c565b9250827fffffffffffffffffffffffffffffffffffffffffffffffffffffffffffffffff038211156114a8576114a76115f8565b5b828201905092915050565b60006114be8261157c565b91506114c98361157c565b9250826114d9576114d8611627565b5b828204905092915050565b60006114ef8261157c565b91506114fa8361157c565b9250817fffffffffffffffffffffffffffffffffffffffffffffffffffffffffffffffff0483118215151615611533576115326115f8565b5b828202905092915050565b60006115498261155c565b9050919050565b60008115159050919050565b600073ffffffffffffffffffffffffffffffffffffffff82169050919050565b6000819050919050565b600060ff82169050919050565b60005b838110156115b1578082015181840152602081019050611596565b838111156115c0576000848401525b50505050565b600060028204905060018216806115de57607f821691505b602082108114156115f2576115f1611656565b5b50919050565b7f4e487b7100000000000000000000000000000000000000000000000000000000600052601160045260246000fd5b7f4e487b7100000000000000000000000000000000000000000000000000000000600052601260045260246000fd5b7f4e487b7100000000000000000000000000000000000000000000000000000000600052602260045260246000fd5b6000601f19601f8301169050919050565b61169f8161153e565b81146116aa57600080fd5b50565b6116b68161157c565b81146116c157600080fd5b5056fea264697066735822122096fb5766edcefeb2ee771631dc48dcaffaf940a6dda6ee6fc8a2a63204c2f51f64736f6c63430008000033",
  "linkReferences": {},
  "deployedLinkReferences": {}
}